:020000040800F2
:10000000005000204D01000849020008510200087C
:10001000590200086102000869020008000000009F
:100020000000000000000000000000007102000855
:100030007D02000800000000890200089502000807
:10004000A1020008A1020008A1020008A102000804
:10005000A1020008A1020008A1020008A1020008F4
:10006000A1020008A1020008A1020008A1020008E4
:10007000A1020008A1020008A1020008A1020008D4
:10008000A1020008A1020008A1020008A1020008C4
:10009000A1020008A1020008A1020008A1020008B4
:1000A000A1020008A1020008A1020008A1020008A4
:1000B000A1020008A1020008A1020008A102000894
:1000C000A1020008A1020008A1020008A102000884
:1000D000A1020008A1020008A1020008A102000874
:1000E000A1020008A1020008A1020008000000000F
:1000F0000000000000000000000000000000000000
:0C01000000000000000000005FF808F1A3
:10010C0010B5054C237833B9044B13B10448AFF345
:10011C0000800123237010BD0400002000000000AB
:10012C00C802000808B5034B1BB103490348AFF3E1
:10013C00008008BD0000000008000020C802000874
:10014C0072B63448016841F01D0101603248016803
:10015C0021F0E06141F00071016030484FF0443112
:10016C0001602F484FF0223101602E482E4901606A
:10017C002E48016821F4700141F4800101602C4883
:10018C004FF00001016000F032F82A48046804F0D6
:10019C00FF0427484FF40051016000F028F825486F
:1001AC00056805F0FF052248016821F4005141F46F
:1001BC008041016000F01BF804EB050606F0040218
:1001CC0026F004064FEAC21246EA020618480168F5
:1001DC0040F2FF1321EA030141EA060121F48041B8
:1001EC0041F40041016000F002F8C8E7FEE7124854
:1001FC00016811F4005FFBD14FF4FA52013AFDD1C2
:10020C00016811F4005FFBD04FF4FA52013AFDD1B2
:10021C007047000018100240040001400008014023
:10022C00000C0140040C014022002022041001406B
:10023C000C0C0140080801400810014080B400AFCC
:10024C0000BFFDE780B400AF00BFFDE780B400AF96
:10025C0000BFFDE780B400AF00BFFDE780B400AF86
:10026C0000BFFDE780B400AF00BFBD4680BC704747
:10027C0080B400AF00BFBD4680BC704780B400AFF7
:10028C0000BFBD4680BC704780B500AF00F004F8DD
:10029C0000BF80BDFEE7000080B400AF054B1B78AB
:1002AC001A46054B1B681344034A136000BFBD4636
:1002BC0080BC70470000002020000020F8B500BF73
:1002CC00F8BC08BC9E467047F8B500BFF8BC08BC2B
:0402DC009E46704783
:0402E00031010008E0
:0402E4000D01000800
:0402E8000100000011
:040000050800014DA1
:00000001FF
